{
  "_format": "hh-sol-artifact-1",
  "contractName": "Staking",
  "sourceName": "contracts/Staking.sol",
  "abi": [
    {
      "inputs": [
        {
          "internalType": "address",
          "name": "_stakingToken",
          "type": "address"
        }
      ],
      "stateMutability": "nonpayable",
      "type": "constructor"
    },
    {
      "inputs": [
        {
          "internalType": "uint256",
          "name": "amount",
          "type": "uint256"
        }
      ],
      "name": "stake",
      "outputs": [],
      "stateMutability": "nonpayable",
      "type": "function"
    },
    {
      "inputs": [
        {
          "internalType": "address",
          "name": "",
          "type": "address"
        }
      ],
      "name": "stakedBalance",
      "outputs": [
        {
          "internalType": "uint256",
          "name": "",
          "type": "uint256"
        }
      ],
      "stateMutability": "view",
      "type": "function"
    },
    {
      "inputs": [],
      "name": "stakingToken",
      "outputs": [
        {
          "internalType": "contract IERC20",
          "name": "",
          "type": "address"
        }
      ],
      "stateMutability": "view",
      "type": "function"
    },
    {
      "inputs": [
        {
          "internalType": "uint256",
          "name": "amount",
          "type": "uint256"
        }
      ],
      "name": "withdraw",
      "outputs": [],
      "stateMutability": "nonpayable",
      "type": "function"
    }
  ],
  "bytecode": "0x608060405234801561001057600080fd5b506040516109b13803806109b1833981810160405281019061003291906100db565b806000806101000a81548173ffffffffffffffffffffffffffffffffffffffff021916908373ffffffffffffffffffffffffffffffffffffffff16021790555050610108565b600080fd5b600073ffffffffffffffffffffffffffffffffffffffff82169050919050565b60006100a88261007d565b9050919050565b6100b88161009d565b81146100c357600080fd5b50565b6000815190506100d5816100af565b92915050565b6000602082840312156100f1576100f0610078565b5b60006100ff848285016100c6565b91505092915050565b61089a806101176000396000f3fe608060405234801561001057600080fd5b506004361061004c5760003560e01c80632e1a7d4d14610051578063602172671461006d57806372f702f31461009d578063a694fc3a146100bb575b600080fd5b61006b60048036038101906100669190610448565b6100d7565b005b610087600480360381019061008291906104d3565b610294565b604051610094919061050f565b60405180910390f35b6100a56102ac565b6040516100b29190610589565b60405180910390f35b6100d560048036038101906100d09190610448565b6102d0565b005b6000811161011a576040517f08c379a000000000000000000000000000000000000000000000000000000000815260040161011190610601565b60405180910390fd5b80600160003373ffffffffffffffffffffffffffffffffffffffff1673ffffffffffffffffffffffffffffffffffffffff16815260200190815260200160002054101561019c576040517f08c379a00000000000000000000000000000000000000000000000000000000081526004016101939061066d565b60405180910390fd5b80600160003373ffffffffffffffffffffffffffffffffffffffff1673ffffffffffffffffffffffffffffffffffffffff16815260200190815260200160002060008282546101eb91906106bc565b9250508190555060008054906101000a900473ffffffffffffffffffffffffffffffffffffffff1673ffffffffffffffffffffffffffffffffffffffff1663a9059cbb33836040518363ffffffff1660e01b815260040161024d9291906106ff565b6020604051808303816000875af115801561026c573d6000803e3d6000fd5b505050506040513d601f19601f820116820180604052508101906102909190610760565b5050565b60016020528060005260406000206000915090505481565b60008054906101000a900473ffffffffffffffffffffffffffffffffffffffff1681565b60008111610313576040517f08c379a000000000000000000000000000000000000000000000000000000000815260040161030a906107d9565b60405180910390fd5b60008054906101000a900473ffffffffffffffffffffffffffffffffffffffff1673ffffffffffffffffffffffffffffffffffffffff166323b872dd3330846040518463ffffffff1660e01b8152600401610370939291906107f9565b6020604051808303816000875af115801561038f573d6000803e3d6000fd5b505050506040513d601f19601f820116820180604052508101906103b39190610760565b5080600160003373ffffffffffffffffffffffffffffffffffffffff1673ffffffffffffffffffffffffffffffffffffffff16815260200190815260200160002060008282546104039190610830565b9250508190555050565b600080fd5b6000819050919050565b61042581610412565b811461043057600080fd5b50565b6000813590506104428161041c565b92915050565b60006020828403121561045e5761045d61040d565b5b600061046c84828501610433565b91505092915050565b600073ffffffffffffffffffffffffffffffffffffffff82169050919050565b60006104a082610475565b9050919050565b6104b081610495565b81146104bb57600080fd5b50565b6000813590506104cd816104a7565b92915050565b6000602082840312156104e9576104e861040d565b5b60006104f7848285016104be565b91505092915050565b61050981610412565b82525050565b60006020820190506105246000830184610500565b92915050565b6000819050919050565b600061054f61054a61054584610475565b61052a565b610475565b9050919050565b600061056182610534565b9050919050565b600061057382610556565b9050919050565b61058381610568565b82525050565b600060208201905061059e600083018461057a565b92915050565b600082825260208201905092915050565b7f43616e6e6f742077697468647261772030000000000000000000000000000000600082015250565b60006105eb6011836105a4565b91506105f6826105b5565b602082019050919050565b6000602082019050818103600083015261061a816105de565b9050919050565b7f4e6f7420656e6f756768207374616b6564000000000000000000000000000000600082015250565b60006106576011836105a4565b915061066282610621565b602082019050919050565b600060208201905081810360008301526106868161064a565b9050919050565b7f4e487b7100000000000000000000000000000000000000000000000000000000600052601160045260246000fd5b60006106c782610412565b91506106d283610412565b92508282039050818111156106ea576106e961068d565b5b92915050565b6106f981610495565b82525050565b600060408201905061071460008301856106f0565b6107216020830184610500565b9392505050565b60008115159050919050565b61073d81610728565b811461074857600080fd5b50565b60008151905061075a81610734565b92915050565b6000602082840312156107765761077561040d565b5b60006107848482850161074b565b91505092915050565b7f43616e6e6f74207374616b652030000000000000000000000000000000000000600082015250565b60006107c3600e836105a4565b91506107ce8261078d565b602082019050919050565b600060208201905081810360008301526107f2816107b6565b9050919050565b600060608201905061080e60008301866106f0565b61081b60208301856106f0565b6108286040830184610500565b949350505050565b600061083b82610412565b915061084683610412565b925082820190508082111561085e5761085d61068d565b5b9291505056fea26469706673582212209bdcc33ef3b172404b985cc9f41c731db719a3d08a0fd922161f097d0ba2486864736f6c63430008140033",
  "linkReferences": {},
  "deployedLinkReferences": {}
}