{
  "_format": "hh-sol-artifact-1",
  "contractName": "Airdrop",
  "sourceName": "contracts/Airdrops.sol",
  "abi": [
    {
      "inputs": [
        {
          "internalType": "contract IERC20",
          "name": "_token",
          "type": "address"
        }
      ],
      "stateMutability": "nonpayable",
      "type": "constructor"
    },
    {
      "inputs": [
        {
          "internalType": "address",
          "name": "owner",
          "type": "address"
        }
      ],
      "name": "OwnableInvalidOwner",
      "type": "error"
    },
    {
      "inputs": [
        {
          "internalType": "address",
          "name": "account",
          "type": "address"
        }
      ],
      "name": "OwnableUnauthorizedAccount",
      "type": "error"
    },
    {
      "anonymous": false,
      "inputs": [
        {
          "indexed": true,
          "internalType": "address",
          "name": "recipient",
          "type": "address"
        },
        {
          "indexed": false,
          "internalType": "uint256",
          "name": "amount",
          "type": "uint256"
        }
      ],
      "name": "AirdropPerformed",
      "type": "event"
    },
    {
      "anonymous": false,
      "inputs": [
        {
          "indexed": true,
          "internalType": "address",
          "name": "previousOwner",
          "type": "address"
        },
        {
          "indexed": true,
          "internalType": "address",
          "name": "newOwner",
          "type": "address"
        }
      ],
      "name": "OwnershipTransferred",
      "type": "event"
    },
    {
      "inputs": [],
      "name": "AIRDROP_AMOUNT",
      "outputs": [
        {
          "internalType": "uint256",
          "name": "",
          "type": "uint256"
        }
      ],
      "stateMutability": "view",
      "type": "function"
    },
    {
      "inputs": [
        {
          "internalType": "address",
          "name": "_recipient",
          "type": "address"
        }
      ],
      "name": "airdrop",
      "outputs": [],
      "stateMutability": "nonpayable",
      "type": "function"
    },
    {
      "inputs": [
        {
          "internalType": "address",
          "name": "",
          "type": "address"
        }
      ],
      "name": "hasReceived",
      "outputs": [
        {
          "internalType": "bool",
          "name": "",
          "type": "bool"
        }
      ],
      "stateMutability": "view",
      "type": "function"
    },
    {
      "inputs": [],
      "name": "owner",
      "outputs": [
        {
          "internalType": "address",
          "name": "",
          "type": "address"
        }
      ],
      "stateMutability": "view",
      "type": "function"
    },
    {
      "inputs": [],
      "name": "renounceOwnership",
      "outputs": [],
      "stateMutability": "nonpayable",
      "type": "function"
    },
    {
      "inputs": [],
      "name": "token",
      "outputs": [
        {
          "internalType": "contract IERC20",
          "name": "",
          "type": "address"
        }
      ],
      "stateMutability": "view",
      "type": "function"
    },
    {
      "inputs": [
        {
          "internalType": "address",
          "name": "newOwner",
          "type": "address"
        }
      ],
      "name": "transferOwnership",
      "outputs": [],
      "stateMutability": "nonpayable",
      "type": "function"
    },
    {
      "inputs": [],
      "name": "withdrawRemainingTokens",
      "outputs": [],
      "stateMutability": "nonpayable",
      "type": "function"
    }
  ],
  "bytecode": "0x60806040523480156200001157600080fd5b5060405162000f5638038062000f56833981810160405281019062000037919062000249565b33600073ffffffffffffffffffffffffffffffffffffffff168173ffffffffffffffffffffffffffffffffffffffff1603620000ad5760006040517f1e4fbdf7000000000000000000000000000000000000000000000000000000008152600401620000a491906200028c565b60405180910390fd5b620000be816200010760201b60201c565b5080600160006101000a81548173ffffffffffffffffffffffffffffffffffffffff021916908373ffffffffffffffffffffffffffffffffffffffff16021790555050620002a9565b60008060009054906101000a900473ffffffffffffffffffffffffffffffffffffffff169050816000806101000a81548173ffffffffffffffffffffffffffffffffffffffff021916908373ffffffffffffffffffffffffffffffffffffffff1602179055508173ffffffffffffffffffffffffffffffffffffffff168173ffffffffffffffffffffffffffffffffffffffff167f8be0079c531659141344cd1fd0a4f28419497f9722a3daafe3b4186f6b6457e060405160405180910390a35050565b600080fd5b600073ffffffffffffffffffffffffffffffffffffffff82169050919050565b6000620001fd82620001d0565b9050919050565b60006200021182620001f0565b9050919050565b620002238162000204565b81146200022f57600080fd5b50565b600081519050620002438162000218565b92915050565b600060208284031215620002625762000261620001cb565b5b6000620002728482850162000232565b91505092915050565b6200028681620001f0565b82525050565b6000602082019050620002a360008301846200027b565b92915050565b610c9d80620002b96000396000f3fe608060405234801561001057600080fd5b50600436106100885760003560e01c80638afbf6691161005b5780638afbf669146101015780638da5cb5b1461010b578063f2fde38b14610129578063fc0c546a1461014557610088565b806321860a051461008d5780632b5b6872146100a957806367327ecc146100c7578063715018a6146100f7575b600080fd5b6100a760048036038101906100a291906108d6565b610163565b005b6100b1610479565b6040516100be919061091c565b60405180910390f35b6100e160048036038101906100dc91906108d6565b610486565b6040516100ee9190610952565b60405180910390f35b6100ff6104a6565b005b6101096104ba565b005b61011361064b565b604051610120919061097c565b60405180910390f35b610143600480360381019061013e91906108d6565b610674565b005b61014d6106fa565b60405161015a91906109f6565b60405180910390f35b61016b610720565b600260008273ffffffffffffffffffffffffffffffffffffffff1673ffffffffffffffffffffffffffffffffffffffff16815260200190815260200160002060009054906101000a900460ff16156101f8576040517f08c379a00000000000000000000000000000000000000000000000000000000081526004016101ef90610a94565b60405180910390fd5b683635c9adc5dea00000600160009054906101000a900473ffffffffffffffffffffffffffffffffffffffff1673ffffffffffffffffffffffffffffffffffffffff166370a08231306040518263ffffffff1660e01b815260040161025d919061097c565b602060405180830381865afa15801561027a573d6000803e3d6000fd5b505050506040513d601f19601f8201168201806040525081019061029e9190610ae0565b10156102df576040517f08c379a00000000000000000000000000000000000000000000000000000000081526004016102d690610b59565b60405180910390fd5b6001600260008373ffffffffffffffffffffffffffffffffffffffff1673ffffffffffffffffffffffffffffffffffffffff16815260200190815260200160002060006101000a81548160ff021916908315150217905550600160009054906101000a900473ffffffffffffffffffffffffffffffffffffffff1673ffffffffffffffffffffffffffffffffffffffff1663a9059cbb82683635c9adc5dea000006040518363ffffffff1660e01b815260040161039d929190610b79565b6020604051808303816000875af11580156103bc573d6000803e3d6000fd5b505050506040513d601f19601f820116820180604052508101906103e09190610bce565b61041f576040517f08c379a000000000000000000000000000000000000000000000000000000000815260040161041690610c47565b60405180910390fd5b8073ffffffffffffffffffffffffffffffffffffffff167f69af4f92c870fd574cfcc9dd6a0772e89ebd71be13ab424c73dc5e173257d7b6683635c9adc5dea0000060405161046e919061091c565b60405180910390a250565b683635c9adc5dea0000081565b60026020528060005260406000206000915054906101000a900460ff1681565b6104ae610720565b6104b860006107a7565b565b6104c2610720565b6000600160009054906101000a900473ffffffffffffffffffffffffffffffffffffffff1673ffffffffffffffffffffffffffffffffffffffff166370a08231306040518263ffffffff1660e01b815260040161051f919061097c565b602060405180830381865afa15801561053c573d6000803e3d6000fd5b505050506040513d601f19601f820116820180604052508101906105609190610ae0565b9050600160009054906101000a900473ffffffffffffffffffffffffffffffffffffffff1673ffffffffffffffffffffffffffffffffffffffff1663a9059cbb6105a861064b565b836040518363ffffffff1660e01b81526004016105c6929190610b79565b6020604051808303816000875af11580156105e5573d6000803e3d6000fd5b505050506040513d601f19601f820116820180604052508101906106099190610bce565b610648576040517f08c379a000000000000000000000000000000000000000000000000000000000815260040161063f90610c47565b60405180910390fd5b50565b60008060009054906101000a900473ffffffffffffffffffffffffffffffffffffffff16905090565b61067c610720565b600073ffffffffffffffffffffffffffffffffffffffff168173ffffffffffffffffffffffffffffffffffffffff16036106ee5760006040517f1e4fbdf70000000000000000000000000000000000000000000000000000000081526004016106e5919061097c565b60405180910390fd5b6106f7816107a7565b50565b600160009054906101000a900473ffffffffffffffffffffffffffffffffffffffff1681565b61072861086b565b73ffffffffffffffffffffffffffffffffffffffff1661074661064b565b73ffffffffffffffffffffffffffffffffffffffff16146107a55761076961086b565b6040517f118cdaa700000000000000000000000000000000000000000000000000000000815260040161079c919061097c565b60405180910390fd5b565b60008060009054906101000a900473ffffffffffffffffffffffffffffffffffffffff169050816000806101000a81548173ffffffffffffffffffffffffffffffffffffffff021916908373ffffffffffffffffffffffffffffffffffffffff1602179055508173ffffffffffffffffffffffffffffffffffffffff168173ffffffffffffffffffffffffffffffffffffffff167f8be0079c531659141344cd1fd0a4f28419497f9722a3daafe3b4186f6b6457e060405160405180910390a35050565b600033905090565b600080fd5b600073ffffffffffffffffffffffffffffffffffffffff82169050919050565b60006108a382610878565b9050919050565b6108b381610898565b81146108be57600080fd5b50565b6000813590506108d0816108aa565b92915050565b6000602082840312156108ec576108eb610873565b5b60006108fa848285016108c1565b91505092915050565b6000819050919050565b61091681610903565b82525050565b6000602082019050610931600083018461090d565b92915050565b60008115159050919050565b61094c81610937565b82525050565b60006020820190506109676000830184610943565b92915050565b61097681610898565b82525050565b6000602082019050610991600083018461096d565b92915050565b6000819050919050565b60006109bc6109b76109b284610878565b610997565b610878565b9050919050565b60006109ce826109a1565b9050919050565b60006109e0826109c3565b9050919050565b6109f0816109d5565b82525050565b6000602082019050610a0b60008301846109e7565b92915050565b600082825260208201905092915050565b7f416464726573732068617320616c72656164792072656365697665642074686560008201527f2061697264726f70000000000000000000000000000000000000000000000000602082015250565b6000610a7e602883610a11565b9150610a8982610a22565b604082019050919050565b60006020820190508181036000830152610aad81610a71565b9050919050565b610abd81610903565b8114610ac857600080fd5b50565b600081519050610ada81610ab4565b92915050565b600060208284031215610af657610af5610873565b5b6000610b0484828501610acb565b91505092915050565b7f496e73756666696369656e7420746f6b656e7320696e20636f6e747261637400600082015250565b6000610b43601f83610a11565b9150610b4e82610b0d565b602082019050919050565b60006020820190508181036000830152610b7281610b36565b9050919050565b6000604082019050610b8e600083018561096d565b610b9b602083018461090d565b9392505050565b610bab81610937565b8114610bb657600080fd5b50565b600081519050610bc881610ba2565b92915050565b600060208284031215610be457610be3610873565b5b6000610bf284828501610bb9565b91505092915050565b7f5472616e73666572206661696c65640000000000000000000000000000000000600082015250565b6000610c31600f83610a11565b9150610c3c82610bfb565b602082019050919050565b60006020820190508181036000830152610c6081610c24565b905091905056fea26469706673582212202d8d36ca8cad405093d39dec0dad5ea39d82c1a4c02a030dbb4ec46147fb021864736f6c63430008140033",
  "linkReferences": {},
  "deployedLinkReferences": {}
}